{
  "_format": "hh-sol-artifact-1",
  "contractName": "RandomIpfsNft",
  "sourceName": "contracts/RandomIpfsNft.sol",
  "abi": [
    {
      "inputs": [
        {
          "internalType": "address",
          "name": "vrfCoordinatorV2",
          "type": "address"
        },
        {
          "internalType": "bytes32",
          "name": "gasLane",
          "type": "bytes32"
        },
        {
          "internalType": "uint64",
          "name": "subscriptionId",
          "type": "uint64"
        },
        {
          "internalType": "uint32",
          "name": "callbackGasLimit",
          "type": "uint32"
        },
        {
          "internalType": "string[3]",
          "name": "dogTokenUris",
          "type": "string[3]"
        }
      ],
      "stateMutability": "nonpayable",
      "type": "constructor"
    },
    {
      "inputs": [
        {
          "internalType": "address",
          "name": "have",
          "type": "address"
        },
        {
          "internalType": "address",
          "name": "want",
          "type": "address"
        }
      ],
      "name": "OnlyCoordinatorCanFulfill",
      "type": "error"
    },
    {
      "anonymous": false,
      "inputs": [
        {
          "indexed": true,
          "internalType": "address",
          "name": "owner",
          "type": "address"
        },
        {
          "indexed": true,
          "internalType": "address",
          "name": "approved",
          "type": "address"
        },
        {
          "indexed": true,
          "internalType": "uint256",
          "name": "tokenId",
          "type": "uint256"
        }
      ],
      "name": "Approval",
      "type": "event"
    },
    {
      "anonymous": false,
      "inputs": [
        {
          "indexed": true,
          "internalType": "address",
          "name": "owner",
          "type": "address"
        },
        {
          "indexed": true,
          "internalType": "address",
          "name": "operator",
          "type": "address"
        },
        {
          "indexed": false,
          "internalType": "bool",
          "name": "approved",
          "type": "bool"
        }
      ],
      "name": "ApprovalForAll",
      "type": "event"
    },
    {
      "anonymous": false,
      "inputs": [
        {
          "indexed": true,
          "internalType": "address",
          "name": "from",
          "type": "address"
        },
        {
          "indexed": true,
          "internalType": "address",
          "name": "to",
          "type": "address"
        },
        {
          "indexed": true,
          "internalType": "uint256",
          "name": "tokenId",
          "type": "uint256"
        }
      ],
      "name": "Transfer",
      "type": "event"
    },
    {
      "inputs": [],
      "name": "MAX_CHANGE_VALUE",
      "outputs": [
        {
          "internalType": "uint256",
          "name": "",
          "type": "uint256"
        }
      ],
      "stateMutability": "view",
      "type": "function"
    },
    {
      "inputs": [],
      "name": "NUM_WORDS",
      "outputs": [
        {
          "internalType": "uint32",
          "name": "",
          "type": "uint32"
        }
      ],
      "stateMutability": "view",
      "type": "function"
    },
    {
      "inputs": [],
      "name": "REQUEST_CONFIRMATION",
      "outputs": [
        {
          "internalType": "uint16",
          "name": "",
          "type": "uint16"
        }
      ],
      "stateMutability": "view",
      "type": "function"
    },
    {
      "inputs": [
        {
          "internalType": "address",
          "name": "to",
          "type": "address"
        },
        {
          "internalType": "uint256",
          "name": "tokenId",
          "type": "uint256"
        }
      ],
      "name": "approve",
      "outputs": [],
      "stateMutability": "nonpayable",
      "type": "function"
    },
    {
      "inputs": [
        {
          "internalType": "address",
          "name": "owner",
          "type": "address"
        }
      ],
      "name": "balanceOf",
      "outputs": [
        {
          "internalType": "uint256",
          "name": "",
          "type": "uint256"
        }
      ],
      "stateMutability": "view",
      "type": "function"
    },
    {
      "inputs": [
        {
          "internalType": "uint256",
          "name": "tokenId",
          "type": "uint256"
        }
      ],
      "name": "getApproved",
      "outputs": [
        {
          "internalType": "address",
          "name": "",
          "type": "address"
        }
      ],
      "stateMutability": "view",
      "type": "function"
    },
    {
      "inputs": [
        {
          "internalType": "uint256",
          "name": "moddedRng",
          "type": "uint256"
        }
      ],
      "name": "getBreedFromModdedRng",
      "outputs": [
        {
          "internalType": "uint256",
          "name": "",
          "type": "uint256"
        }
      ],
      "stateMutability": "pure",
      "type": "function"
    },
    {
      "inputs": [],
      "name": "getChangeArray",
      "outputs": [
        {
          "internalType": "uint256[3]",
          "name": "",
          "type": "uint256[3]"
        }
      ],
      "stateMutability": "pure",
      "type": "function"
    },
    {
      "inputs": [],
      "name": "i_callbackGasLimit",
      "outputs": [
        {
          "internalType": "uint32",
          "name": "",
          "type": "uint32"
        }
      ],
      "stateMutability": "view",
      "type": "function"
    },
    {
      "inputs": [],
      "name": "i_gasLane",
      "outputs": [
        {
          "internalType": "bytes32",
          "name": "",
          "type": "bytes32"
        }
      ],
      "stateMutability": "view",
      "type": "function"
    },
    {
      "inputs": [],
      "name": "i_subscriptionId",
      "outputs": [
        {
          "internalType": "uint64",
          "name": "",
          "type": "uint64"
        }
      ],
      "stateMutability": "view",
      "type": "function"
    },
    {
      "inputs": [
        {
          "internalType": "address",
          "name": "owner",
          "type": "address"
        },
        {
          "internalType": "address",
          "name": "operator",
          "type": "address"
        }
      ],
      "name": "isApprovedForAll",
      "outputs": [
        {
          "internalType": "bool",
          "name": "",
          "type": "bool"
        }
      ],
      "stateMutability": "view",
      "type": "function"
    },
    {
      "inputs": [],
      "name": "name",
      "outputs": [
        {
          "internalType": "string",
          "name": "",
          "type": "string"
        }
      ],
      "stateMutability": "view",
      "type": "function"
    },
    {
      "inputs": [
        {
          "internalType": "uint256",
          "name": "tokenId",
          "type": "uint256"
        }
      ],
      "name": "ownerOf",
      "outputs": [
        {
          "internalType": "address",
          "name": "",
          "type": "address"
        }
      ],
      "stateMutability": "view",
      "type": "function"
    },
    {
      "inputs": [
        {
          "internalType": "uint256",
          "name": "requestId",
          "type": "uint256"
        },
        {
          "internalType": "uint256[]",
          "name": "randomWords",
          "type": "uint256[]"
        }
      ],
      "name": "rawFulfillRandomWords",
      "outputs": [],
      "stateMutability": "nonpayable",
      "type": "function"
    },
    {
      "inputs": [],
      "name": "requestDoggie",
      "outputs": [
        {
          "internalType": "uint256",
          "name": "requestId",
          "type": "uint256"
        }
      ],
      "stateMutability": "nonpayable",
      "type": "function"
    },
    {
      "inputs": [
        {
          "internalType": "uint256",
          "name": "",
          "type": "uint256"
        }
      ],
      "name": "s_dogTokenUris",
      "outputs": [
        {
          "internalType": "string",
          "name": "",
          "type": "string"
        }
      ],
      "stateMutability": "view",
      "type": "function"
    },
    {
      "inputs": [
        {
          "internalType": "uint256",
          "name": "",
          "type": "uint256"
        }
      ],
      "name": "s_requestIdToSender",
      "outputs": [
        {
          "internalType": "address",
          "name": "",
          "type": "address"
        }
      ],
      "stateMutability": "view",
      "type": "function"
    },
    {
      "inputs": [],
      "name": "s_tokenCounter",
      "outputs": [
        {
          "internalType": "uint256",
          "name": "",
          "type": "uint256"
        }
      ],
      "stateMutability": "view",
      "type": "function"
    },
    {
      "inputs": [
        {
          "internalType": "address",
          "name": "from",
          "type": "address"
        },
        {
          "internalType": "address",
          "name": "to",
          "type": "address"
        },
        {
          "internalType": "uint256",
          "name": "tokenId",
          "type": "uint256"
        }
      ],
      "name": "safeTransferFrom",
      "outputs": [],
      "stateMutability": "nonpayable",
      "type": "function"
    },
    {
      "inputs": [
        {
          "internalType": "address",
          "name": "from",
          "type": "address"
        },
        {
          "internalType": "address",
          "name": "to",
          "type": "address"
        },
        {
          "internalType": "uint256",
          "name": "tokenId",
          "type": "uint256"
        },
        {
          "internalType": "bytes",
          "name": "_data",
          "type": "bytes"
        }
      ],
      "name": "safeTransferFrom",
      "outputs": [],
      "stateMutability": "nonpayable",
      "type": "function"
    },
    {
      "inputs": [
        {
          "internalType": "address",
          "name": "operator",
          "type": "address"
        },
        {
          "internalType": "bool",
          "name": "approved",
          "type": "bool"
        }
      ],
      "name": "setApprovalForAll",
      "outputs": [],
      "stateMutability": "nonpayable",
      "type": "function"
    },
    {
      "inputs": [
        {
          "internalType": "bytes4",
          "name": "interfaceId",
          "type": "bytes4"
        }
      ],
      "name": "supportsInterface",
      "outputs": [
        {
          "internalType": "bool",
          "name": "",
          "type": "bool"
        }
      ],
      "stateMutability": "view",
      "type": "function"
    },
    {
      "inputs": [],
      "name": "symbol",
      "outputs": [
        {
          "internalType": "string",
          "name": "",
          "type": "string"
        }
      ],
      "stateMutability": "view",
      "type": "function"
    },
    {
      "inputs": [
        {
          "internalType": "uint256",
          "name": "tokenId",
          "type": "uint256"
        }
      ],
      "name": "tokenURI",
      "outputs": [
        {
          "internalType": "string",
          "name": "",
          "type": "string"
        }
      ],
      "stateMutability": "view",
      "type": "function"
    },
    {
      "inputs": [
        {
          "internalType": "address",
          "name": "from",
          "type": "address"
        },
        {
          "internalType": "address",
          "name": "to",
          "type": "address"
        },
        {
          "internalType": "uint256",
          "name": "tokenId",
          "type": "uint256"
        }
      ],
      "name": "transferFrom",
      "outputs": [],
      "stateMutability": "nonpayable",
      "type": "function"
    }
  ],
  "bytecode": "0x6101206040523480156200001257600080fd5b5060405162003ebe38038062003ebe8339818101604052810190620000389190620004c3565b846040518060400160405280600f81526020017f52616e646f6d2049504653204e465400000000000000000000000000000000008152506040518060400160405280600381526020017f52494e00000000000000000000000000000000000000000000000000000000008152508160009080519060200190620000bd929190620001ae565b508060019080519060200190620000d6929190620001ae565b5050508073ffffffffffffffffffffffffffffffffffffffff1660808173ffffffffffffffffffffffffffffffffffffffff1660601b81525050508473ffffffffffffffffffffffffffffffffffffffff1660a08173ffffffffffffffffffffffffffffffffffffffff1660601b815250508360c081815250508267ffffffffffffffff1660e08167ffffffffffffffff1660c01b815250508163ffffffff166101008163ffffffff1660e01b815250506000600781905550806009906003620001a29291906200023f565b505050505050620007e6565b828054620001bc906200068a565b90600052602060002090601f016020900481019282620001e057600085556200022c565b82601f10620001fb57805160ff19168380011785556200022c565b828001600101855582156200022c579182015b828111156200022b5782518255916020019190600101906200020e565b5b5090506200023b919062000299565b5090565b826003810192821562000286579160200282015b828111156200028557825182908051906020019062000274929190620001ae565b509160200191906001019062000253565b5b509050620002959190620002b8565b5090565b5b80821115620002b45760008160009055506001016200029a565b5090565b5b80821115620002dc5760008181620002d29190620002e0565b50600101620002b9565b5090565b508054620002ee906200068a565b6000825580601f1062000302575062000323565b601f01602090049060005260206000209081019062000322919062000299565b5b50565b60006200033d620003378462000593565b6200056a565b905080828560208602820111156200035a576200035962000759565b5b60005b85811015620003af57815167ffffffffffffffff81111562000384576200038362000754565b5b80860162000393898262000462565b855260208501945060208401935050506001810190506200035d565b5050509392505050565b6000620003d0620003ca84620005bc565b6200056a565b905082815260208101848484011115620003ef57620003ee6200075e565b5b620003fc84828562000654565b509392505050565b60008151905062000415816200077e565b92915050565b600082601f83011262000433576200043262000754565b5b60036200044284828562000326565b91505092915050565b6000815190506200045c8162000798565b92915050565b600082601f8301126200047a576200047962000754565b5b81516200048c848260208601620003b9565b91505092915050565b600081519050620004a681620007b2565b92915050565b600081519050620004bd81620007cc565b92915050565b600080600080600060a08688031215620004e257620004e162000768565b5b6000620004f28882890162000404565b955050602062000505888289016200044b565b94505060406200051888828901620004ac565b93505060606200052b8882890162000495565b925050608086015167ffffffffffffffff8111156200054f576200054e62000763565b5b6200055d888289016200041b565b9150509295509295909350565b60006200057662000589565b9050620005848282620006c0565b919050565b6000604051905090565b600067ffffffffffffffff821115620005b157620005b062000725565b5b602082029050919050565b600067ffffffffffffffff821115620005da57620005d962000725565b5b620005e5826200076d565b9050602081019050919050565b6000620005ff8262000610565b9050919050565b6000819050919050565b600073ffffffffffffffffffffffffffffffffffffffff82169050919050565b600063ffffffff82169050919050565b600067ffffffffffffffff82169050919050565b60005b838110156200067457808201518184015260208101905062000657565b8381111562000684576000848401525b50505050565b60006002820490506001821680620006a357607f821691505b60208210811415620006ba57620006b9620006f6565b5b50919050565b620006cb826200076d565b810181811067ffffffffffffffff82111715620006ed57620006ec62000725565b5b80604052505050565b7f4e487b7100000000000000000000000000000000000000000000000000000000600052602260045260246000fd5b7f4e487b7100000000000000000000000000000000000000000000000000000000600052604160045260246000fd5b600080fd5b600080fd5b600080fd5b600080fd5b600080fd5b6000601f19601f8301169050919050565b6200078981620005f2565b81146200079557600080fd5b50565b620007a38162000606565b8114620007af57600080fd5b50565b620007bd8162000630565b8114620007c957600080fd5b50565b620007d78162000640565b8114620007e357600080fd5b50565b60805160601c60a05160601c60c05160e05160c01c6101005160e01c61366b62000853600039600081816108d001526110bb0152600081816108ad0152610afc01526000818161088c0152610c94015260006108500152600081816109bc0152610a10015261366b6000f3fe608060405234801561001057600080fd5b506004361061018e5760003560e01c80638550a3a1116100de578063a51cccf311610097578063c87b56dd11610071578063c87b56dd14610499578063d4d95b7f146104c9578063d757d027146104e7578063e985e9c5146105055761018e565b8063a51cccf31461041d578063b88d4fde1461044d578063c42b65e2146104695761018e565b80638550a3a1146103595780638e879c8a1461037757806395d89b41146103955780639ab9f4bc146103b3578063a22cb465146103d1578063a36f573b146103ed5761018e565b80631fe543e31161014b578063470cdf9711610125578063470cdf97146102bd5780636352211e146102db57806370a082311461030b57806372cf6e341461033b5761018e565b80631fe543e31461026957806323b872dd1461028557806342842e0e146102a15761018e565b806301ffc9a71461019357806306fdde03146101c3578063081812fc146101e1578063095ea7b3146102115780630b21a83b1461022d5780631801cc8a1461024b575b600080fd5b6101ad60048036038101906101a8919061241a565b610535565b6040516101ba91906129b3565b60405180910390f35b6101cb610617565b6040516101d89190612a3c565b60405180910390f35b6101fb60048036038101906101f69190612474565b6106a9565b6040516102089190612908565b60405180910390f35b61022b600480360381019061022691906123da565b61072e565b005b610235610846565b6040516102429190612c79565b60405180910390f35b61025361084c565b6040516102609190612c79565b60405180910390f35b610283600480360381019061027e91906124ce565b6109ba565b005b61029f600480360381019061029a91906122c4565b610a7a565b005b6102bb60048036038101906102b691906122c4565b610ada565b005b6102c5610afa565b6040516102d29190612caf565b60405180910390f35b6102f560048036038101906102f09190612474565b610b1e565b6040516103029190612908565b60405180910390f35b61032560048036038101906103209190612257565b610bd0565b6040516103329190612c79565b60405180910390f35b610343610c88565b6040516103509190612c94565b60405180910390f35b610361610c8d565b60405161036e9190612c5e565b60405180910390f35b61037f610c92565b60405161038c91906129ce565b60405180910390f35b61039d610cb6565b6040516103aa9190612a3c565b60405180910390f35b6103bb610d48565b6040516103c89190612c79565b60405180910390f35b6103eb60048036038101906103e6919061239a565b610d4d565b005b61040760048036038101906104029190612474565b610d63565b6040516104149190612908565b60405180910390f35b61043760048036038101906104329190612474565b610d96565b6040516104449190612c79565b60405180910390f35b61046760048036038101906104629190612317565b610e37565b005b610483600480360381019061047e9190612474565b610e99565b6040516104909190612a3c565b60405180910390f35b6104b360048036038101906104ae9190612474565b610f3c565b6040516104c09190612a3c565b60405180910390f35b6104d161108e565b6040516104de9190612998565b60405180910390f35b6104ef6110b9565b6040516104fc9190612c94565b60405180910390f35b61051f600480360381019061051a9190612284565b6110dd565b60405161052c91906129b3565b60405180910390f35b60007f80ac58cd000000000000000000000000000000000000000000000000000000007bffffffffffffffffffffffffffffffffffffffffffffffffffffffff1916827bffffffffffffffffffffffffffffffffffffffffffffffffffffffff1916148061060057507f5b5e139f000000000000000000000000000000000000000000000000000000007bffffffffffffffffffffffffffffffffffffffffffffffffffffffff1916827bffffffffffffffffffffffffffffffffffffffffffffffffffffffff1916145b80610610575061060f82611171565b5b9050919050565b60606000805461062690612f69565b80601f016020809104026020016040519081016040528092919081815260200182805461065290612f69565b801561069f5780601f106106745761010080835404028352916020019161069f565b820191906000526020600020905b81548152906001019060200180831161068257829003601f168201915b5050505050905090565b60006106b4826111db565b6106f3576040517f08c379a00000000000000000000000000000000000000000000000000000000081526004016106ea90612bde565b60405180910390fd5b6004600083815260200190815260200160002060009054906101000a900473ffffffffffffffffffffffffffffffffffffffff169050919050565b600061073982610b1e565b90508073ffffffffffffffffffffffffffffffffffffffff168373ffffffffffffffffffffffffffffffffffffffff1614156107aa576040517f08c379a00000000000000000000000000000000000000000000000000000000081526004016107a190612c1e565b60405180910390fd5b8073ffffffffffffffffffffffffffffffffffffffff166107c9611247565b73ffffffffffffffffffffffffffffffffffffffff1614806107f857506107f7816107f2611247565b6110dd565b5b610837576040517f08c379a000000000000000000000000000000000000000000000000000000000815260040161082e90612b1e565b60405180910390fd5b610841838361124f565b505050565b60075481565b60007f000000000000000000000000000000000000000000000000000000000000000073ffffffffffffffffffffffffffffffffffffffff16635d3b1d307f00000000000000000000000000000000000000000000000000000000000000007f000000000000000000000000000000000000000000000000000000000000000060037f000000000000000000000000000000000000000000000000000000000000000060016040518663ffffffff1660e01b81526004016109119594939291906129e9565b602060405180830381600087803b15801561092b57600080fd5b505af115801561093f573d6000803e3d6000fd5b505050506040513d601f19601f8201168201806040525081019061096391906124a1565b9050336008600083815260200190815260200160002060006101000a81548173ffffffffffffffffffffffffffffffffffffffff021916908373ffffffffffffffffffffffffffffffffffffffff16021790555090565b7f000000000000000000000000000000000000000000000000000000000000000073ffffffffffffffffffffffffffffffffffffffff163373ffffffffffffffffffffffffffffffffffffffff1614610a6c57337f00000000000000000000000000000000000000000000000000000000000000006040517f1cf993f4000000000000000000000000000000000000000000000000000000008152600401610a63929190612923565b60405180910390fd5b610a768282611308565b5050565b610a8b610a85611247565b8261144e565b610aca576040517f08c379a0000000000000000000000000000000000000000000000000000000008152600401610ac190612c3e565b60405180910390fd5b610ad583838361152c565b505050565b610af583838360405180602001604052806000815250610e37565b505050565b7f000000000000000000000000000000000000000000000000000000000000000081565b6000806002600084815260200190815260200160002060009054906101000a900473ffffffffffffffffffffffffffffffffffffffff169050600073ffffffffffffffffffffffffffffffffffffffff168173ffffffffffffffffffffffffffffffffffffffff161415610bc7576040517f08c379a0000000000000000000000000000000000000000000000000000000008152600401610bbe90612b5e565b60405180910390fd5b80915050919050565b60008073ffffffffffffffffffffffffffffffffffffffff168273ffffffffffffffffffffffffffffffffffffffff161415610c41576040517f08c379a0000000000000000000000000000000000000000000000000000000008152600401610c3890612b3e565b60405180910390fd5b600360008373ffffffffffffffffffffffffffffffffffffffff1673ffffffffffffffffffffffffffffffffffffffff168152602001908152602001600020549050919050565b600181565b600381565b7f000000000000000000000000000000000000000000000000000000000000000081565b606060018054610cc590612f69565b80601f0160208091040260200160405190810160405280929190818152602001828054610cf190612f69565b8015610d3e5780601f10610d1357610100808354040283529160200191610d3e565b820191906000526020600020905b815481529060010190602001808311610d2157829003601f168201915b5050505050905090565b606481565b610d5f610d58611247565b8383611793565b5050565b60086020528060005260406000206000915054906101000a900473ffffffffffffffffffffffffffffffffffffffff1681565b600080600090506000610da761108e565b905060005b6003811015610e2e57828510158015610de65750818160038110610dd357610dd26130d3565b5b602002015183610de39190612dbc565b85105b15610df657809350505050610e32565b818160038110610e0957610e086130d3565b5b602002015183610e199190612dbc565b92508080610e2690612fcc565b915050610dac565b5050505b919050565b610e48610e42611247565b8361144e565b610e87576040517f08c379a0000000000000000000000000000000000000000000000000000000008152600401610e7e90612c3e565b60405180910390fd5b610e9384848484611900565b50505050565b60098160038110610ea957600080fd5b016000915090508054610ebb90612f69565b80601f0160208091040260200160405190810160405280929190818152602001828054610ee790612f69565b8015610f345780601f10610f0957610100808354040283529160200191610f34565b820191906000526020600020905b815481529060010190602001808311610f1757829003601f168201915b505050505081565b6060610f47826111db565b610f86576040517f08c379a0000000000000000000000000000000000000000000000000000000008152600401610f7d90612bbe565b60405180910390fd5b6000600660008481526020019081526020016000208054610fa690612f69565b80601f0160208091040260200160405190810160405280929190818152602001828054610fd290612f69565b801561101f5780601f10610ff45761010080835404028352916020019161101f565b820191906000526020600020905b81548152906001019060200180831161100257829003601f168201915b50505050509050600061103061195c565b9050600081511415611046578192505050611089565b60008251111561107b5780826040516020016110639291906128e4565b60405160208183030381529060405292505050611089565b61108484611973565b925050505b919050565b611096612006565b6040518060600160405280600a8152602001601e81526020016064815250905090565b7f000000000000000000000000000000000000000000000000000000000000000081565b6000600560008473ffffffffffffffffffffffffffffffffffffffff1673ffffffffffffffffffffffffffffffffffffffff16815260200190815260200160002060008373ffffffffffffffffffffffffffffffffffffffff1673ffffffffffffffffffffffffffffffffffffffff16815260200190815260200160002060009054906101000a900460ff16905092915050565b60007f01ffc9a7000000000000000000000000000000000000000000000000000000007bffffffffffffffffffffffffffffffffffffffffffffffffffffffff1916827bffffffffffffffffffffffffffffffffffffffffffffffffffffffff1916149050919050565b60008073ffffffffffffffffffffffffffffffffffffffff166002600084815260200190815260200160002060009054906101000a900473ffffffffffffffffffffffffffffffffffffffff1673ffffffffffffffffffffffffffffffffffffffff1614159050919050565b600033905090565b816004600083815260200190815260200160002060006101000a81548173ffffffffffffffffffffffffffffffffffffffff021916908373ffffffffffffffffffffffffffffffffffffffff160217905550808273ffffffffffffffffffffffffffffffffffffffff166112c283610b1e565b73ffffffffffffffffffffffffffffffffffffffff167f8c5be1e5ebec7d5bd14f71427d1e84f3dd0314c0f7b2291e5b200ac8c7c3b92560405160405180910390a45050565b60006008600084815260200190815260200160002060009054906101000a900473ffffffffffffffffffffffffffffffffffffffff1690506000600754905060016007546113569190612dbc565b6007819055506000606484600081518110611374576113736130d3565b5b60200260200101516113869190613015565b9050600061139382610d96565b905061139f8484611a1a565b61144683600983600381106113b7576113b66130d3565b5b0180546113c390612f69565b80601f01602080910402602001604051908101604052809291908181526020018280546113ef90612f69565b801561143c5780601f106114115761010080835404028352916020019161143c565b820191906000526020600020905b81548152906001019060200180831161141f57829003601f168201915b5050505050611a38565b505050505050565b6000611459826111db565b611498576040517f08c379a000000000000000000000000000000000000000000000000000000000815260040161148f90612afe565b60405180910390fd5b60006114a383610b1e565b90508073ffffffffffffffffffffffffffffffffffffffff168473ffffffffffffffffffffffffffffffffffffffff1614806114e557506114e481856110dd565b5b8061152357508373ffffffffffffffffffffffffffffffffffffffff1661150b846106a9565b73ffffffffffffffffffffffffffffffffffffffff16145b91505092915050565b8273ffffffffffffffffffffffffffffffffffffffff1661154c82610b1e565b73ffffffffffffffffffffffffffffffffffffffff16146115a2576040517f08c379a000000000000000000000000000000000000000000000000000000000815260040161159990612a7e565b60405180910390fd5b600073ffffffffffffffffffffffffffffffffffffffff168273ffffffffffffffffffffffffffffffffffffffff161415611612576040517f08c379a000000000000000000000000000000000000000000000000000000000815260040161160990612abe565b60405180910390fd5b61161d838383611aac565b61162860008261124f565b6001600360008573ffffffffffffffffffffffffffffffffffffffff1673ffffffffffffffffffffffffffffffffffffffff16815260200190815260200160002060008282546116789190612e43565b925050819055506001600360008473ffffffffffffffffffffffffffffffffffffffff1673ffffffffffffffffffffffffffffffffffffffff16815260200190815260200160002060008282546116cf9190612dbc565b92505081905550816002600083815260200190815260200160002060006101000a81548173ffffffffffffffffffffffffffffffffffffffff021916908373ffffffffffffffffffffffffffffffffffffffff160217905550808273ffffffffffffffffffffffffffffffffffffffff168473ffffffffffffffffffffffffffffffffffffffff167fddf252ad1be2c89b69c2b068fc378daa952ba7f163c4a11628f55a4df523b3ef60405160405180910390a461178e838383611ab1565b505050565b8173ffffffffffffffffffffffffffffffffffffffff168373ffffffffffffffffffffffffffffffffffffffff161415611802576040517f08c379a00000000000000000000000000000000000000000000000000000000081526004016117f990612ade565b60405180910390fd5b80600560008573ffffffffffffffffffffffffffffffffffffffff1673ffffffffffffffffffffffffffffffffffffffff16815260200190815260200160002060008473ffffffffffffffffffffffffffffffffffffffff1673ffffffffffffffffffffffffffffffffffffffff16815260200190815260200160002060006101000a81548160ff0219169083151502179055508173ffffffffffffffffffffffffffffffffffffffff168373ffffffffffffffffffffffffffffffffffffffff167f17307eab39ab6107e8899845ad3d59bd9653f200f220920489ca2b5937696c31836040516118f391906129b3565b60405180910390a3505050565b61190b84848461152c565b61191784848484611ab6565b611956576040517f08c379a000000000000000000000000000000000000000000000000000000000815260040161194d90612a5e565b60405180910390fd5b50505050565b606060405180602001604052806000815250905090565b606061197e826111db565b6119bd576040517f08c379a00000000000000000000000000000000000000000000000000000000081526004016119b490612bfe565b60405180910390fd5b60006119c761195c565b905060008151116119e75760405180602001604052806000815250611a12565b806119f184611c4d565b604051602001611a029291906128e4565b6040516020818303038152906040525b915050919050565b611a34828260405180602001604052806000815250611dae565b5050565b611a41826111db565b611a80576040517f08c379a0000000000000000000000000000000000000000000000000000000008152600401611a7790612b7e565b60405180910390fd5b80600660008481526020019081526020016000209080519060200190611aa7929190612028565b505050565b505050565b505050565b6000611ad78473ffffffffffffffffffffffffffffffffffffffff16611e09565b15611c40578373ffffffffffffffffffffffffffffffffffffffff1663150b7a02611b00611247565b8786866040518563ffffffff1660e01b8152600401611b22949392919061294c565b602060405180830381600087803b158015611b3c57600080fd5b505af1925050508015611b6d57506040513d601f19601f82011682018060405250810190611b6a9190612447565b60015b611bf0573d8060008114611b9d576040519150601f19603f3d011682016040523d82523d6000602084013e611ba2565b606091505b50600081511415611be8576040517f08c379a0000000000000000000000000000000000000000000000000000000008152600401611bdf90612a5e565b60405180910390fd5b805181602001fd5b63150b7a0260e01b7bffffffffffffffffffffffffffffffffffffffffffffffffffffffff1916817bffffffffffffffffffffffffffffffffffffffffffffffffffffffff191614915050611c45565b600190505b949350505050565b60606000821415611c95576040518060400160405280600181526020017f30000000000000000000000000000000000000000000000000000000000000008152509050611da9565b600082905060005b60008214611cc7578080611cb090612fcc565b915050600a82611cc09190612e12565b9150611c9d565b60008167ffffffffffffffff811115611ce357611ce2613102565b5b6040519080825280601f01601f191660200182016040528015611d155781602001600182028036833780820191505090505b5090505b60008514611da257600182611d2e9190612e43565b9150600a85611d3d9190613015565b6030611d499190612dbc565b60f81b818381518110611d5f57611d5e6130d3565b5b60200101907effffffffffffffffffffffffffffffffffffffffffffffffffffffffffffff1916908160001a905350600a85611d9b9190612e12565b9450611d19565b8093505050505b919050565b611db88383611e2c565b611dc56000848484611ab6565b611e04576040517f08c379a0000000000000000000000000000000000000000000000000000000008152600401611dfb90612a5e565b60405180910390fd5b505050565b6000808273ffffffffffffffffffffffffffffffffffffffff163b119050919050565b600073ffffffffffffffffffffffffffffffffffffffff168273ffffffffffffffffffffffffffffffffffffffff161415611e9c576040517f08c379a0000000000000000000000000000000000000000000000000000000008152600401611e9390612b9e565b60405180910390fd5b611ea5816111db565b15611ee5576040517f08c379a0000000000000000000000000000000000000000000000000000000008152600401611edc90612a9e565b60405180910390fd5b611ef160008383611aac565b6001600360008473ffffffffffffffffffffffffffffffffffffffff1673ffffffffffffffffffffffffffffffffffffffff1681526020019081526020016000206000828254611f419190612dbc565b92505081905550816002600083815260200190815260200160002060006101000a81548173ffffffffffffffffffffffffffffffffffffffff021916908373ffffffffffffffffffffffffffffffffffffffff160217905550808273ffffffffffffffffffffffffffffffffffffffff16600073ffffffffffffffffffffffffffffffffffffffff167fddf252ad1be2c89b69c2b068fc378daa952ba7f163c4a11628f55a4df523b3ef60405160405180910390a461200260008383611ab1565b5050565b6040518060600160405280600390602082028036833780820191505090505090565b82805461203490612f69565b90600052602060002090601f016020900481019282612056576000855561209d565b82601f1061206f57805160ff191683800117855561209d565b8280016001018555821561209d579182015b8281111561209c578251825591602001919060010190612081565b5b5090506120aa91906120ae565b5090565b5b808211156120c75760008160009055506001016120af565b5090565b60006120de6120d984612cef565b612cca565b9050808382526020820190508285602086028201111561210157612100613136565b5b60005b858110156121315781612117888261222d565b845260208401935060208301925050600181019050612104565b5050509392505050565b600061214e61214984612d1b565b612cca565b90508281526020810184848401111561216a5761216961313b565b5b612175848285612f27565b509392505050565b60008135905061218c816135d9565b92915050565b600082601f8301126121a7576121a6613131565b5b81356121b78482602086016120cb565b91505092915050565b6000813590506121cf816135f0565b92915050565b6000813590506121e481613607565b92915050565b6000815190506121f981613607565b92915050565b600082601f83011261221457612213613131565b5b813561222484826020860161213b565b91505092915050565b60008135905061223c8161361e565b92915050565b6000815190506122518161361e565b92915050565b60006020828403121561226d5761226c613145565b5b600061227b8482850161217d565b91505092915050565b6000806040838503121561229b5761229a613145565b5b60006122a98582860161217d565b92505060206122ba8582860161217d565b9150509250929050565b6000806000606084860312156122dd576122dc613145565b5b60006122eb8682870161217d565b93505060206122fc8682870161217d565b925050604061230d8682870161222d565b9150509250925092565b6000806000806080858703121561233157612330613145565b5b600061233f8782880161217d565b94505060206123508782880161217d565b93505060406123618782880161222d565b925050606085013567ffffffffffffffff81111561238257612381613140565b5b61238e878288016121ff565b91505092959194509250565b600080604083850312156123b1576123b0613145565b5b60006123bf8582860161217d565b92505060206123d0858286016121c0565b9150509250929050565b600080604083850312156123f1576123f0613145565b5b60006123ff8582860161217d565b92505060206124108582860161222d565b9150509250929050565b6000602082840312156124305761242f613145565b5b600061243e848285016121d5565b91505092915050565b60006020828403121561245d5761245c613145565b5b600061246b848285016121ea565b91505092915050565b60006020828403121561248a57612489613145565b5b60006124988482850161222d565b91505092915050565b6000602082840312156124b7576124b6613145565b5b60006124c584828501612242565b91505092915050565b600080604083850312156124e5576124e4613145565b5b60006124f38582860161222d565b925050602083013567ffffffffffffffff81111561251457612513613140565b5b61252085828601612192565b9150509250929050565b600061253683836128a8565b60208301905092915050565b61254b81612e77565b82525050565b61255a81612d56565b6125648184612d84565b925061256f82612d4c565b8060005b838110156125a0578151612587878261252a565b965061259283612d77565b925050600181019050612573565b505050505050565b6125b181612e89565b82525050565b6125c081612e95565b82525050565b60006125d182612d61565b6125db8185612d8f565b93506125eb818560208601612f36565b6125f48161314a565b840191505092915050565b600061260a82612d6c565b6126148185612da0565b9350612624818560208601612f36565b61262d8161314a565b840191505092915050565b600061264382612d6c565b61264d8185612db1565b935061265d818560208601612f36565b80840191505092915050565b6000612676603283612da0565b91506126818261315b565b604082019050919050565b6000612699602583612da0565b91506126a4826131aa565b604082019050919050565b60006126bc601c83612da0565b91506126c7826131f9565b602082019050919050565b60006126df602483612da0565b91506126ea82613222565b604082019050919050565b6000612702601983612da0565b915061270d82613271565b602082019050919050565b6000612725602c83612da0565b91506127308261329a565b604082019050919050565b6000612748603883612da0565b9150612753826132e9565b604082019050919050565b600061276b602a83612da0565b915061277682613338565b604082019050919050565b600061278e602983612da0565b915061279982613387565b604082019050919050565b60006127b1602e83612da0565b91506127bc826133d6565b604082019050919050565b60006127d4602083612da0565b91506127df82613425565b602082019050919050565b60006127f7603183612da0565b91506128028261344e565b604082019050919050565b600061281a602c83612da0565b91506128258261349d565b604082019050919050565b600061283d602f83612da0565b9150612848826134ec565b604082019050919050565b6000612860602183612da0565b915061286b8261353b565b604082019050919050565b6000612883603183612da0565b915061288e8261358a565b604082019050919050565b6128a281612ecb565b82525050565b6128b181612ef9565b82525050565b6128c081612ef9565b82525050565b6128cf81612f03565b82525050565b6128de81612f13565b82525050565b60006128f08285612638565b91506128fc8284612638565b91508190509392505050565b600060208201905061291d6000830184612542565b92915050565b60006040820190506129386000830185612542565b6129456020830184612542565b9392505050565b60006080820190506129616000830187612542565b61296e6020830186612542565b61297b60408301856128b7565b818103606083015261298d81846125c6565b905095945050505050565b60006060820190506129ad6000830184612551565b92915050565b60006020820190506129c860008301846125a8565b92915050565b60006020820190506129e360008301846125b7565b92915050565b600060a0820190506129fe60008301886125b7565b612a0b60208301876128d5565b612a186040830186612899565b612a2560608301856128c6565b612a3260808301846128c6565b9695505050505050565b60006020820190508181036000830152612a5681846125ff565b905092915050565b60006020820190508181036000830152612a7781612669565b9050919050565b60006020820190508181036000830152612a978161268c565b9050919050565b60006020820190508181036000830152612ab7816126af565b9050919050565b60006020820190508181036000830152612ad7816126d2565b9050919050565b60006020820190508181036000830152612af7816126f5565b9050919050565b60006020820190508181036000830152612b1781612718565b9050919050565b60006020820190508181036000830152612b378161273b565b9050919050565b60006020820190508181036000830152612b578161275e565b9050919050565b60006020820190508181036000830152612b7781612781565b9050919050565b60006020820190508181036000830152612b97816127a4565b9050919050565b60006020820190508181036000830152612bb7816127c7565b9050919050565b60006020820190508181036000830152612bd7816127ea565b9050919050565b60006020820190508181036000830152612bf78161280d565b9050919050565b60006020820190508181036000830152612c1781612830565b9050919050565b60006020820190508181036000830152612c3781612853565b9050919050565b60006020820190508181036000830152612c5781612876565b9050919050565b6000602082019050612c736000830184612899565b92915050565b6000602082019050612c8e60008301846128b7565b92915050565b6000602082019050612ca960008301846128c6565b92915050565b6000602082019050612cc460008301846128d5565b92915050565b6000612cd4612ce5565b9050612ce08282612f9b565b919050565b6000604051905090565b600067ffffffffffffffff821115612d0a57612d09613102565b5b602082029050602081019050919050565b600067ffffffffffffffff821115612d3657612d35613102565b5b612d3f8261314a565b9050602081019050919050565b6000819050919050565b600060039050919050565b600081519050919050565b600081519050919050565b6000602082019050919050565b600081905092915050565b600082825260208201905092915050565b600082825260208201905092915050565b600081905092915050565b6000612dc782612ef9565b9150612dd283612ef9565b9250827fffffffffffffffffffffffffffffffffffffffffffffffffffffffffffffffff03821115612e0757612e06613046565b5b828201905092915050565b6000612e1d82612ef9565b9150612e2883612ef9565b925082612e3857612e37613075565b5b828204905092915050565b6000612e4e82612ef9565b9150612e5983612ef9565b925082821015612e6c57612e6b613046565b5b828203905092915050565b6000612e8282612ed9565b9050919050565b60008115159050919050565b6000819050919050565b60007fffffffff0000000000000000000000000000000000000000000000000000000082169050919050565b600061ffff82169050919050565b600073ffffffffffffffffffffffffffffffffffffffff82169050919050565b6000819050919050565b600063ffffffff82169050919050565b600067ffffffffffffffff82169050919050565b82818337600083830152505050565b60005b83811015612f54578082015181840152602081019050612f39565b83811115612f63576000848401525b50505050565b60006002820490506001821680612f8157607f821691505b60208210811415612f9557612f946130a4565b5b50919050565b612fa48261314a565b810181811067ffffffffffffffff82111715612fc357612fc2613102565b5b80604052505050565b6000612fd782612ef9565b91507fffffffffffffffffffffffffffffffffffffffffffffffffffffffffffffffff82141561300a57613009613046565b5b600182019050919050565b600061302082612ef9565b915061302b83612ef9565b92508261303b5761303a613075565b5b828206905092915050565b7f4e487b7100000000000000000000000000000000000000000000000000000000600052601160045260246000fd5b7f4e487b7100000000000000000000000000000000000000000000000000000000600052601260045260246000fd5b7f4e487b7100000000000000000000000000000000000000000000000000000000600052602260045260246000fd5b7f4e487b7100000000000000000000000000000000000000000000000000000000600052603260045260246000fd5b7f4e487b7100000000000000000000000000000000000000000000000000000000600052604160045260246000fd5b600080fd5b600080fd5b600080fd5b600080fd5b600080fd5b6000601f19601f8301169050919050565b7f4552433732313a207472616e7366657220746f206e6f6e20455243373231526560008201527f63656976657220696d706c656d656e7465720000000000000000000000000000602082015250565b7f4552433732313a207472616e736665722066726f6d20696e636f72726563742060008201527f6f776e6572000000000000000000000000000000000000000000000000000000602082015250565b7f4552433732313a20746f6b656e20616c7265616479206d696e74656400000000600082015250565b7f4552433732313a207472616e7366657220746f20746865207a65726f2061646460008201527f7265737300000000000000000000000000000000000000000000000000000000602082015250565b7f4552433732313a20617070726f766520746f2063616c6c657200000000000000600082015250565b7f4552433732313a206f70657261746f7220717565727920666f72206e6f6e657860008201527f697374656e7420746f6b656e0000000000000000000000000000000000000000602082015250565b7f4552433732313a20617070726f76652063616c6c6572206973206e6f74206f7760008201527f6e6572206e6f7220617070726f76656420666f7220616c6c0000000000000000602082015250565b7f4552433732313a2062616c616e636520717565727920666f7220746865207a6560008201527f726f206164647265737300000000000000000000000000000000000000000000602082015250565b7f4552433732313a206f776e657220717565727920666f72206e6f6e657869737460008201527f656e7420746f6b656e0000000000000000000000000000000000000000000000602082015250565b7f45524337323155524953746f726167653a2055524920736574206f66206e6f6e60008201527f6578697374656e7420746f6b656e000000000000000000000000000000000000602082015250565b7f4552433732313a206d696e7420746f20746865207a65726f2061646472657373600082015250565b7f45524337323155524953746f726167653a2055524920717565727920666f722060008201527f6e6f6e6578697374656e7420746f6b656e000000000000000000000000000000602082015250565b7f4552433732313a20617070726f76656420717565727920666f72206e6f6e657860008201527f697374656e7420746f6b656e0000000000000000000000000000000000000000602082015250565b7f4552433732314d657461646174613a2055524920717565727920666f72206e6f60008201527f6e6578697374656e7420746f6b656e0000000000000000000000000000000000602082015250565b7f4552433732313a20617070726f76616c20746f2063757272656e74206f776e6560008201527f7200000000000000000000000000000000000000000000000000000000000000602082015250565b7f4552433732313a207472616e736665722063616c6c6572206973206e6f74206f60008201527f776e6572206e6f7220617070726f766564000000000000000000000000000000602082015250565b6135e281612e77565b81146135ed57600080fd5b50565b6135f981612e89565b811461360457600080fd5b50565b61361081612e9f565b811461361b57600080fd5b50565b61362781612ef9565b811461363257600080fd5b5056fea264697066735822122019d2bd2f5c98eb3778caf7af45550c32184f2ccd6aa2ca65c335574b2ad9210d64736f6c63430008070033",
  "linkReferences": {},
  "deployedLinkReferences": {}
}